:1000000012C0189518951895189518951895189563
:100010001895189518951895189518951895189578
:100020001895189518958FE58DBFC8E3E0E24E2E20
:1000300084E08EBFD4E0F4E05F2EA89584B7082E4C
:10004000877F84BF88E1992781BD91BDEEEFF3E002
:10005000A0E6B0E088278D933197E9F783E389B96B
:1000600080E080BD88E18AB966248FEF87BB8A9AD9
:100070008B9A8C9A80E084BB8D988E988F9880EDB7
:1000800097E0A2E6B0E08D939C9380EA9FE090D544
:10009000A4E6B0E0E6E3FDE0A5D5A4E6B0E072D5C5
:1000A000A4E6B0E0ACD5082FA8E0B4E0E0E1F0E0D1
:1000B000C6D566D56DD588EE93E07AD555D5A0E83E
:1000C000B0E08C9300918000013009F005C050D55C
:1000D000A1E8B0E08C9301C006C00091810000331C
:1000E00009F001C02DC281E080937D0000917D0068
:1000F000093010F009F058C0ADE7B0E0AD90BB2476
:10010000A3E7B0E0AA0DBB1D0C91013009F045C07A
:1001100087E680939E00AEE7B0E0EDE7F0E08FD594
:10012000AEE7B0E0E9D5082F023008F017C083E051
:1001300053D5EEE7F0E0A881B981CAD5AEE7B0E0CB
:10014000E2E4FDE04FD5E881F981AEE7B0E0F0D41C
:10015000BFD583E0481A80E0580A2296A4E6B0E0B2
:10016000E4E4FDE03FD5EEE7F0E0A4E6B0E0E0D463
:10017000AFD5A4E6B0E0DCD4ECE4FDE033D5A4E6F2
:10018000B0E000D5A4E6B0E03AD5082FA8E0B4E08E
:10019000E0E1F0E054D5F4D4FBD4ADE7B0E08C91CD
:1001A0008F5F8C9308F4A2CF98991EC000917400C1
:1001B000003009F016C087E680939E00A4E6B0E008
:1001C000E0E5FDE00FD5A4E6B0E0DCD4A4E6B0E0C5
:1001D00016D5082FA8E0B4E0E0E1F0E030D5D0D4A7
:1001E000D7D48AEF8093740099991EC0009175004E
:1001F000003009F016C087E680939E00A4E6B0E0C8
:10020000ECE5FDE0EFD4A4E6B0E0BCD4A4E6B0E0B9
:10021000F6D4082FA8E0B4E0E0E1F0E010D5B0D4C7
:10022000B7D48AEF809375009A991EC0009176002A
:10023000003009F016C087E680939E00A4E6B0E087
:10024000E8E6FDE0CFD4A4E6B0E09CD4A4E6B0E0BC
:10025000D6D4082FA8E0B4E0E0E1F0E0F0D490D4E8
:1002600097D48AEF809376009B991EC00091770007
:10027000003009F016C087E680939E00A4E6B0E047
:10028000E4E7FDE0AFD4A4E6B0E07CD4A4E6B0E0BF
:10029000B6D4082FA8E0B4E0E0E1F0E0D0D470D408
:1002A00077D48AEF809377009C991EC000917800E4
:1002B000003009F016C087E680939E00A4E6B0E007
:1002C000E0E8FDE08FD4A4E6B0E05CD4A4E6B0E0C2
:1002D00096D4082FA8E0B4E0E0E1F0E0B0D450D428
:1002E00057D48AEF809378009D991EC000917900C1
:1002F000003009F016C087E680939E00A4E6B0E0C7
:10030000ECE8FDE06FD4A4E6B0E03CD4A4E6B0E0B5
:1003100076D4082FA8E0B4E0E0E1F0E090D430D447
:1003200037D48AEF8093790085991EC000917A00B6
:10033000003009F016C087E680939E00A4E6B0E086
:10034000E8E9FDE04FD4A4E6B0E01CD4A4E6B0E0B8
:1003500056D4082FA8E0B4E0E0E1F0E070D410D467
:1003600017D48AEF80937A0086991EC000917B0093
:10037000003009F016C087E680939E00A4E6B0E046
:10038000E4EAFDE02FD4A4E6B0E0FCD3A4E6B0E0BC
:1003900036D4082FA8E0B4E0E0E1F0E050D4F0D388
:1003A000F7D38AEF80937B0087991EC000917C0071
:1003B000003009F016C087E680939E00A4E6B0E006
:1003C000E0EBFDE00FD4A4E6B0E0DCD3A4E6B0E0BF
:1003D00016D4082FA8E0B4E0E0E1F0E030D4D0D3A8
:1003E000D7D38AEF80937C0081E080937D000091D9
:1003F0007D00093010F009F02AC0ADE7B0E0AD9003
:10040000BB24A3E7B0E0AA0DBB1D0C91003080E037
:1004100010F009F081E08F9300919D00003081E0A1
:1004200009F080E09F918923882309F409C0ADE792
:10043000B0E0AD90BB24A3E7B0E0AA0DBB1D6DD327
:10044000ADE7B0E08C918F5F8C9308F4D0CF009132
:100450009E00003010F009F001C005C080919E00A0
:10046000815080939E0000919E00043609F001C0E7
:10047000949A00919E00003009F001C09498A2E681
:10048000B0E00D911C91003050E0150714F009F018
:1004900001C003C0A2E6B0E044D3A2E6B0E00D91F3
:1004A0001C91003050E0150709F01CC087E68093CE
:1004B0009E00A4E6B0E0ECEBFDE094D3A4E6B0E04F
:1004C00061D3A4E6B0E09BD3082FA8E0B4E0E0E15C
:1004D000F0E0B5D355D35CD380E29EE4A2E6B0E071
:1004E0008D939C93A0E6B0E00D911C91003050E0FC
:1004F000150714F009F001C003C0A0E6B0E011D365
:10050000A0E6B0E00D911C91043F51E0150709F001
:1005100001C0939AA0E6B0E00D911C91003050E02C
:10052000150709F007C0939884E398E0A0E6B0E0CF
:100530008D939C9381E090E03BD3C0CDF894FFCFA6
:10054000F7D3A2E8B0E0EFE0FCD2EFD3E2E8F0E0CE
:1005500003E0A2E9B0E0C8D385E0E2E8F0E001E022
:100560000A93A6E9B0E0B9D387E0E2E8F0E002E060
:100570000A93A8E9B0E0B1D38AE0E2E8F0E001E054
:100580000A93ABE9B0E0A9D3A2E9B0E0E8ECFDE062
:10059000B9D309F0BFC2A6E9B0E0ECECFDE0B2D3FC
:1005A00009F00EC287E680939E00A8E9B0E0EEEC69
:1005B000FDE0A8D309F035C0ABE9B0E0E2EDFDE025
:1005C000A1D309F001C0C09AABE9B0E0E2E4FDE0DC
:1005D00099D309F001C0C098A4E6B0E0E4EDFDE0D5
:1005E00001D3A8E3B0E08C9180FBA4E6B0E0A0D2F8
:1005F00002D38D9388278C93A4E6B0E099D2EEEDD8
:10060000FDE0F0D2A4E6B0E0BDD2A4E6B0E0F7D2BF
:10061000082FA8E0B4E0E0E1F0E011D3B1D2B8D205
:10062000CFC1E0EEFDE06ED309F035C0ABE9B0E03C
:10063000E2EDFDE067D309F001C0C19AABE9B0E09B
:10064000E2E4FDE05FD309F001C0C198A4E6B0E0A8
:10065000E4EEFDE0C7D2A8E3B0E08C9181FBA4E614
:10066000B0E066D2C8D28D9388278C93A4E6B0E020
:100670005FD2EEEDFDE0B6D2A4E6B0E083D2A4E610
:10068000B0E0BDD2082FA8E0B4E0E0E1F0E0D7D2BE
:1006900077D27ED295C1EEEEFDE034D309F035C0BD
:1006A000ABE9B0E0E2EDFDE02DD309F001C0C29A64
:1006B000ABE9B0E0E2E4FDE025D309F001C0C29867
:1006C000A4E6B0E0E2EFFDE08DD2A8E3B0E08C91CB
:1006D00082FBA4E6B0E02CD28ED28D9388278C9337
:1006E000A4E6B0E025D2EEEDFDE07CD2A4E6B0E0D9
:1006F00049D2A4E6B0E083D2082FA8E0B4E0E0E15C
:10070000F0E09DD23DD244D25BC1ECEFFDE0FAD2E5
:1007100009F035C0ABE9B0E0E2EDFDE0F3D209F05D
:1007200001C0C39AABE9B0E0E2E4FDE0EBD209F02E
:1007300001C0C398A4E6B0E0E0E0FEE053D2A8E335
:10074000B0E08C9183FBA4E6B0E0F2D154D28D935B
:1007500088278C93A4E6B0E0EBD1EEEDFDE042D229
:10076000A4E6B0E00FD2A4E6B0E049D2082FA8E09A
:10077000B4E0E0E1F0E063D203D20AD221C1EAE0C2
:10078000FEE0C0D209F035C0ABE9B0E0E2EDFDE03B
:10079000B9D209F001C0C49AABE9B0E0E2E4FDE0EF
:1007A000B1D209F001C0C498A4E6B0E0EEE0FEE0EA
:1007B00019D2A8E3B0E08C9184FBA4E6B0E0B8D1F4
:1007C0001AD28D9388278C93A4E6B0E0B1D1EEEDD8
:1007D000FDE008D2A4E6B0E0D5D1A4E6B0E00FD2A7
:1007E000082FA8E0B4E0E0E1F0E029D2C9D1D0D1EF
:1007F000E7C0E8E1FEE086D209F035C0ABE9B0E041
:10080000E2EDFDE07FD209F001C0C59AABE9B0E0AE
:10081000E2E4FDE077D209F001C0C598A4E6B0E0BB
:10082000ECE1FEE0DFD1A8E3B0E08C9185FBA4E62B
:10083000B0E07ED1E0D18D9388278C93A4E6B0E020
:1008400077D1EEEDFDE0CED1A4E6B0E09BD1A4E6F9
:10085000B0E0D5D1082FA8E0B4E0E0E1F0E0EFD1BE
:100860008FD196D1ADC0E6E2FEE04CD209F035C0A2
:10087000ABE9B0E0E2EDFDE045D209F001C0C69A77
:10088000ABE9B0E0E2E4FDE03DD209F001C0C6987A
:10089000A4E6B0E0EAE2FEE0A5D1A8E3B0E08C91E6
:1008A00086FBA4E6B0E044D1A6D18D9388278C9333
:1008B000A4E6B0E03DD1EEEDFDE094D1A4E6B0E0D9
:1008C00061D1A4E6B0E09BD1082FA8E0B4E0E0E15C
:1008D000F0E0B5D155D15CD173C0E4E3FEE012D2B3
:1008E00009F035C0ABE9B0E0E2EDFDE00BD209F074
:1008F00001C0C79AABE9B0E0E2E4FDE003D209F041
:1009000001C0C798A4E6B0E0E8E3FEE06BD1A8E33D
:10091000B0E08C9187FBA4E6B0E00AD16CD18D9356
:1009200088278C93A4E6B0E003D1EEEDFDE05AD128
:10093000A4E6B0E027D1A4E6B0E061D1082FA8E09A
:10094000B4E0E0E1F0E07BD11BD122D139C0E2E498
:10095000FEE0D8D109F034C0ABE9B0E0E2EDFDE053
:10096000D1D109F001C0929AABE9B0E0E2E4FDE038
:10097000C9D109F001C09298A4E6B0E0E6E4FEE037
:1009800031D1A2E3B0E08C9182FBA4E6B0E0D0D0FC
:1009900032D18D9388278C93A4E6B0E0C9D0EEEDD8
:1009A000FDE020D1A4E6B0E0EDD0A4E6B0E027D190
:1009B000082FA8E0B4E0E0E1F0E041D1E1D0E8D0D8
:1009C000A6E9B0E0E0E5FEE09DD109F0A3C0A8E90A
:1009D000B0E0EEECFDE096D109F00DC0009174009E
:1009E000003009F004C082E08093740003C080E00E
:1009F000809374008FC0E0EEFDE084D109F00DC05B
:100A000000917500003009F004C082E08093750009
:100A100003C080E0809375007DC0EEEEFDE072D1F2
:100A200009F00DC000917600003009F004C082E0AA
:100A30008093760003C080E0809376006BC0ECEF7B
:100A4000FDE060D109F00DC000917700003009F0A1
:100A500004C082E08093770003C080E08093770039
:100A600059C0EAE0FEE04ED109F00DC000917800D7
:100A7000003009F004C082E08093780003C080E079
:100A80008093780047C0E8E1FEE03CD109F00DC05A
:100A900000917900003009F004C082E08093790071
:100AA00003C080E08093790035C0E6E2FEE02AD101
:100AB00009F00DC000917A00003009F004C082E016
:100AC00080937A0003C080E080937A0023C0E4E33F
:100AD000FEE018D109F00DC000917B00003009F054
:100AE00004C082E080937B0003C080E080937B00A1
:100AF00011C0E2E4FEE006D109F00CC000917C00D8
:100B0000003009F004C082E080937C0003C080E0E4
:100B100080937C00E8CAF894FFCF8C9181508C932D
:100B20000895ED91FC91E150F040FC93EE9308950F
:100B30008F938D918823E9F711978F910895A8E0FD
:100B4000B4E01AD08D3039F0EE23D9F38D93EA95C5
:100B500063FE21D0F6CF63FC04C08DE01CD08AE098
:100B60001AD088278C93089581E05F9B8827089589
:100B700088275F9B089500C05F9BFECF8CB10895CE
:100B8000A8E0B4E08D91882311F005D0FBCF089543
:100B90008DE001D08AE05D9BFECF8CB9089531973E
:100BA000F1F70895689462F80895E89462F808955A
:100BB000EF93FF93EE27E82BE92B31F0E0EDF7E020
:100BC0003197F1F70197D1F7FF91EF9108950191D6
:100BD000119121913081089599275A924A92480E95
:100BE000591E089504D00D920020E1F70895C8958C
:100BF00031960020089580E30EF4839508958827A8
:100C00009D91890F9923E1F70895000F111F221F6D
:100C1000331F089500951095209530950F5F1F4F55
:100C20002F4F3F4F0895019110810BC0D0DF0BC0B3
:100C30000191108117FF05C03FEF2FEF04C0008125
:100C400011272227332737FF03C0E4DF8DE28D937E
:100C5000CF92DF92EF92AA24BB24CC24DD24EE2491
:100C600040E2EAE0FF2755E093E38081890F87FDAA
:100C70009F7083FD907F891B81935A95A9F7C5DFEB
:100C8000AA1CBB1CCC1CDD1CEE1C4A9551F7E89439
:100C9000EFE0FF2782910CD0EB30E0F71EF0689474
:100CA0008A2D0AD088278D93EF90DF90CF900895FA
:100CB000982F829501D0892F8F70805D26F0803328
:100CC00009F4089568948D93089588278D93089565
:100CD00081918D938823E1F708950991919199234A
:100CE00051F08A95D9F73197002329F081918D939E
:100CF0000A958823C9F7E9CF8FEF83959D919923B2
:100D0000E1F70895689401C0E894AF93BF938D9183
:100D100016F0919102C06BDF902D891718F011F435
:100D20008823A9F7BF91AF910895E89463F80895D7
:100D3000689463F808953030323A733A30303A317B
:100D40003A0030003030323A693A00003A303A0026
:100D50003030323A693A30313A313A003030323A52
:100D6000693A30323A313A003030323A693A303307
:100D70003A313A003030323A693A30343A313A0056
:100D80003030323A693A30353A313A003030323A1E
:100D9000693A30363A313A003030323A693A3037CF
:100DA0003A313A003030323A693A30383A313A0022
:100DB0003030323A693A30393A313A003030323AEA
:100DC000733A30313A313A00303032006F0030310E
:100DD000000031003030323A6F3A30313A003A0098
:100DE000303200003030323A6F3A30323A0030332D
:100DF00000003030323A6F3A30333A00303400007D
:100E00003030323A6F3A30343A003035000030300A
:100E1000323A6F3A30353A00303600003030323AEC
:100E20006F3A30363A00303700003030323A6F3A9D
:100E300030373A00303800003030323A6F3A3038CC
:100E40003A00303900003030323A6F3A30393A00E7
:020E5000690037
:00000001FF
