:1000000012C0189518951895189518951895189563
:100010001895189518951895189518951895189578
:100020001895189518958FE58DBFC8E3E0E24E2E20
:1000300084E08EBFD4E0F4E05F2EA89584B7082E4C
:10004000877F84BF88E1992781BD91BDEEEFF3E002
:10005000A0E6B0E088278D933197E9F78CE089B965
:1000600080E080BD88E18AB966248FEF87BB8A9AD9
:100070008B9A8C9A8D988E988F9874B7777F74BF6F
:100080008BE181BD83E081BD86E886B980E487B9D4
:10009000379AE0E0F0E0A0E1B0E087D5003281E0FF
:1000A00008F480E08F93E0E0F0E0A0E1B0E07DD5DF
:1000B0000D3781E010F009F080E09F9189238823BB
:1000C00009F406C0E0E0F0E0AFE9B0E06ED503C0AF
:1000D00080E280939F00A0EAB0E0EFE9F0E008D56D
:1000E00081B5886081BD70919700716070939700B1
:1000F00000919F00003209F005C070919700726076
:100100007093970033D4AFE7B0E08C9300917F00F9
:10011000013009F01CC02ED4A0E8B0E08C934091CF
:100120009F0000918000041781E009F080E08F9328
:10013000009180000E3781E009F080E09F91892BCB
:10014000882309F404C08BEC809391002CC00091AB
:100150009100003010F009F001C005C080919100BD
:1001600081508093910000919100083C09F001C0FA
:10017000949A00919100003009F001C09498009188
:100180009700003009F002C0939A02C09398949AA5
:10019000A895EF93FF93E0E6F0E009D4FF91EF918B
:1001A000B1CFF894FFCF21D5A1E8B0E0E9E0CBD3FF
:1001B00019D582E0E1E8F0E001E00A93ADE8B0E0B3
:1001C000CED484E0E1E8F0E001E00A93AFE8B0E0EB
:1001D000C6D486E0E1E8F0E004E00A93A2E9B0E0EA
:1001E000BED4A2E9B0E09CD4ABE8B0E00D931C9380
:1001F000ADE8B0E0E0EFFBE0E2D409F0CCC0AFE85E
:10020000B0E0E2EFFBE0DBD409F0C4C0A2E9B0E06B
:100210008C91803009F462C0ABE8B0E00D911C9184
:100220000F3F51E0150710F009F001C006C08FEF35
:1002300091E0ABE8B0E08D939C93ABE8B0E00C911B
:1002400000FB0EF002C0C09A01C0C098ABE8B0E05D
:100250000C9101FB0EF002C0C19A01C0C198ABE83D
:10026000B0E00C9102FB0EF002C0C29A01C0C2982D
:10027000ABE8B0E00C9103FB0EF002C0C39A01C0E2
:10028000C398ABE8B0E00C9104FB0EF002C0C49A36
:1002900001C0C498ABE8B0E00C9105FB0EF002C0C1
:1002A000C59A01C0C598ABE8B0E00C9106FB0EF012
:1002B00002C0C69A01C0C698ABE8B0E00C9107FB3B
:1002C0000EF002C0C79A01C0C798ACE8B0E00C912C
:1002D00000FB0EF002C0929A01C0929880E090E07C
:1002E000A8E9B0E08D939C93C09B05C0A8E9B0E05D
:1002F0007C9171607C93C19B05C0A8E9B0E07C91C2
:1003000072607C93C29B05C0A8E9B0E07C917460E8
:100310007C93C39B05C0A8E9B0E07C9178607C9396
:10032000C49B05C0A8E9B0E07C9170617C93C59B3B
:1003300005C0A8E9B0E07C9170627C93C69B05C0C3
:10034000A8E9B0E07C9170647C93C79B05C0A8E9E4
:10035000B0E07C9170687C93929B05C0A9E9B0E005
:100360007C9171607C93AAE9B0E0E8E9F0E0C2D347
:10037000E0EAF0E0A0E6B0E0EDD3A0E6B0E0DAD24B
:10038000E4EFFBE037D3EAE9F0E0A0E6B0E0D2D258
:10039000E1D3B4D2B7CEADE8B0E0EAEFFBE00FD4E2
:1003A00009F01EC1AFE8B0E0E2EFFBE008D409F0CD
:1003B00033C080E090E0A8E9B0E08D939C938599EC
:1003C00005C0A8E9B0E07C9171607C93869905C076
:1003D000A8E9B0E07C9172607C93879905C0A8E998
:1003E000B0E07C9174607C93AAE9B0E0E8E9F0E0C9
:1003F00081D3E0EAF0E0A0E6B0E0ACD3A0E6B0E064
:1004000099D2ECEFFBE0F6D2EAE9F0E0A0E6B0E04A
:1004100091D2A0D373D2E3C0E2E0FCE0D0D309F0E4
:1004200021C007B1007F006007B9E9D2A8E9B0E0B8
:100430008D939C93AAE9B0E0E8E9F0E05BD3E0EAB1
:10044000F0E0A0E6B0E086D3A0E6B0E073D2E4E04E
:10045000FCE0D0D2EAE9F0E0A0E6B0E06BD27AD3DB
:100460004DD2BDC0EAE0FCE0AAD309F021C007B13B
:10047000007F016007B9C3D2A8E9B0E08D939C93D7
:10048000AAE9B0E0E8E9F0E035D3E0EAF0E0A0E680
:10049000B0E060D3A0E6B0E04DD2ECE0FCE0AAD240
:1004A000EAE9F0E0A0E6B0E045D254D327D297C005
:1004B000E2E1FCE084D309F021C007B1007F0260D3
:1004C00007B99DD2A8E9B0E08D939C93AAE9B0E06A
:1004D000E8E9F0E00FD3E0EAF0E0A0E6B0E03AD3DC
:1004E000A0E6B0E027D2E4E1FCE084D2EAE9F0E063
:1004F000A0E6B0E01FD22ED301D271C0EAE1FCE049
:100500005ED309F021C007B1007F036007B977D23D
:10051000A8E9B0E08D939C93AAE9B0E0E8E9F0E0A7
:10052000E9D2E0EAF0E0A0E6B0E014D3A0E6B0E063
:1005300001D2ECE1FCE05ED2EAE9F0E0A0E6B0E056
:10054000F9D108D3DBD14BC0E2E2FCE038D309F0AB
:1005500021C007B1007F046007B951D2A8E9B0E01B
:100560008D939C93AAE9B0E0E8E9F0E0C3D2E0EA19
:10057000F0E0A0E6B0E0EED2A0E6B0E0DBD1E4E24D
:10058000FCE038D2EAE9F0E0A0E6B0E0D3D1E2D274
:10059000B5D125C0EAE2FCE012D309F020C007B1D2
:1005A000007F056007B92BD2A8E9B0E08D939C933A
:1005B000AAE9B0E0E8E9F0E09DD2E0EAF0E0A0E6E8
:1005C000B0E0C8D2A0E6B0E0B5D1ECE2FCE012D2D7
:1005D000EAE9F0E0A0E6B0E0ADD1BCD28FD192CD97
:1005E000ADE8B0E0E2E3FCE0EAD209F010C1AFE828
:1005F000B0E0E2EFFBE0E3D209F051C0A2E9B0E0E5
:100600008C91803009F433C0ABE8B0E00D911C91BF
:10061000073050E0150710F009F001C006C087E070
:1006200090E0ABE8B0E08D939C93ABE8B0E00C9128
:1006300000FB0EF005C0709197007E7F70939700CD
:10064000ABE8B0E00C9101FB0EF005C07091970093
:100650007D7F70939700ABE8B0E00C9102FB0EF049
:1006600006C0A7E9B0E08C9194E089278C93AAE9B1
:10067000B0E0E7E9F0E03CD2E0EAF0E0A0E6B0E08C
:1006800069D2A0E6B0E056D1E4E3FCE0B3D1EAE9F8
:10069000F0E0A0E6B0E04ED15DD230D1B7C0E2E0EC
:1006A000FCE08DD209F00DC0E0EAF0E0A0E6B0E099
:1006B00051D2A0E6B0E03ED1EAE3FCE09BD11ED1EE
:1006C000A5C0EAE0FCE07BD209F00DC0E0EAF0E072
:1006D000A0E6B0E03FD2A0E6B0E02CD1E4E4FCE03C
:1006E00089D10CD193C0E2E1FCE069D209F018C0D5
:1006F000A4EAB0E0EEE4FCE07DD1E0EAF0E0A0E6C0
:10070000B0E028D2A0E6B0E015D1E4E5FCE072D17B
:10071000E4EAF0E0A0E6B0E00DD11CD2EFD076C064
:10072000EAE1FCE04CD209F018C0A4EAB0E0EAE546
:10073000FCE060D1E0EAF0E0A0E6B0E00BD2A0E699
:10074000B0E0F8D0EEE6FCE055D1E4EAF0E0A0E657
:10075000B0E0F0D0FFD1D2D059C0E2E2FCE02FD21D
:1007600009F00DC0E0EAF0E0A0E6B0E0F3D1A0E6C9
:10077000B0E0E0D0E4E7FCE03DD1C0D047C0EAE221
:10078000FCE01DD209F00DC0E0EAF0E0A0E6B0E028
:10079000E1D1A0E6B0E0CED0EEE7FCE02BD1AED0C8
:1007A00035C0E8E8FCE00BD209F00DC0E0EAF0E06B
:1007B000A0E6B0E0CFD1A0E6B0E0BCD0EAE8FCE033
:1007C00019D19CD023C0E4E9FCE0F9D109F00DC0B7
:1007D000E0EAF0E0A0E6B0E0BDD1A0E6B0E0AAD04B
:1007E000E6E9FCE007D18AD011C0E0EAFCE0E7D1FD
:1007F00009F00CC0E0EAF0E0A0E6B0E0ABD1A0E682
:10080000B0E098D0E2EAFCE0F5D078D07BCCADE85F
:10081000B0E0ECEAFCE0D3D109F06DC0AFE8B0E0A5
:10082000E2EFFBE0CCD109F010C0E0EAF0E0A0E696
:10083000B0E090D1A0E6B0E07DD0EEEAFCE0DAD006
:100840005DD0E1E0F0E0ADD055C0E2E0FCE0B7D132
:1008500009F050C0ABE8B0E00D911C91003250E0BF
:10086000150781E008F480E08F93ABE8B0E00D91CC
:100870001C910D3750E0150781E010F009F080E081
:100880009F918923882309F40BC0E0E0F0E0ABE8F6
:10089000B0E07BE779D1E0E0F0E0AFE9B0E085D10E
:1008A000E0EAF0E0A0E6B0E055D1A0E6B0E042D04A
:1008B000E8EBFCE09FD0A0E6B0E03CD0EFE9F0E050
:1008C00017D11CD081E090D0A881B981EFE9F0E088
:1008D0000FD1E881F981A0EAB0E073D10FB681E0D1
:1008E000481A80E0580A22960FBE09F403C0E1E0DE
:1008F000F0E057D007CC06CCF894FFCFA0E6B0E0EC
:1009000091D0A3EAB0E08C93E0E6F0E0A8E0B4E098
:1009100021D1A8E0B4E00ED0E0ECFCE06BD0A8E080
:10092000B4E008D0E3EAF0E09DD02CD033D00895B5
:10093000F894FFCF8F938D918823E9F711978F91CA
:100940000895A8E0B4E01AD08D3039F0EE23D9F341
:100950008D93EA9563FE21D0F6CF63FC04C08DE051
:100960001CD08AE01AD088278C93089581E05F9B81
:100970008827089588275F9B089500C05F9BFECF5E
:100980008CB10895A8E0B4E08D91882311F005D0D2
:10099000FBCF08958DE001D08AE05D9BFECF8CB93E
:1009A000089588EE93E00CD03197D9F708953197E8
:1009B000F1F70895689462F80895E89462F808954C
:1009C000EF93FF93EE27E82BE92B31F0E0EDF7E012
:1009D0003197F1F70197D1F7FF91EF9108950191C8
:1009E000119121913081089599275A924A92480E87
:1009F000591E08950DD00D920020E1F70895369A02
:100A00003699FECF369A3699FECF84B195B10895C6
:100A1000C895319600200895813618F08B3708F478
:100A20008F7D089588279D91890F9923E1F7089577
:100A3000000F111F221F331F089500951095209558
:100A400030950F5F1F4F2F4F3F4F08950191108139
:100A50000BC0C5DF0BC00191108117FF05C03FEF30
:100A60002FEF04C0008111272227332737FF03C04F
:100A7000E4DF8DE28D93CF92DF92EF92AA24BB2424
:100A8000CC24DD24EE2440E2EAE0FF2755E093E3A6
:100A90008081890F87FD9F7083FD907F891B8193E3
:100AA0005A95A9F7C5DFAA1CBB1CCC1CDD1CEE1C8B
:100AB0004A9551F7E894EFE0FF2782910CD0EB3094
:100AC000E0F71EF068948A2D0AD088278D93EF9066
:100AD000DF90CF900895982F829501D0892F8F7045
:100AE000805D26F0803309F4089568948D9308950D
:100AF00041E003C042E001C044E0E40F8827F81F52
:100B00008291982F829505D0892F03D04A95C1F7FD
:100B10001EC08F708A3008F0895F805D8D930895C4
:100B200000271127222733278D91882379F080DF32
:100B30007FDF7EDF7DDF70DF815408F4895F865FB1
:100B4000080F8827181F281F381FEECF0895882701
:100B50008D93089581918D938823E1F708950991EC
:100B60009191992351F08A95D9F73197002329F073
:100B700081918D930A958823C9F7E9CFE199FECF3A
:100B8000EEBBFFBB3196089591E001C092E07B3748
:100B900051F47FB7F894F2DF8D918DBBE29AE19A20
:100BA0009A95C9F77FBF7727089591E001C092E039
:100BB000E5DFE09A8DB38D939A95D1F70895689407
:100BC00001C0E894AF93BF938D9116F0919102C04C
:100BD0001FDF902D891718F011F48823A9F7BF9112
:100BE000AF910895E89463F80895689463F80895C0
:100BF0006F0030002C6F2C303A0069002C692C30CB
:100C00003A0031002C692C313A0032002C692C3228
:100C10003A0033002C692C333A0034002C692C3410
:100C20003A0035002C692C353A0036002C692C36F8
:100C30003A0073002C732C303A002C732C313A306C
:100C4000303431002C732C323A4F53494400322E49
:100C5000302E37002C732C333A0030312D30392DA3
:100C6000323032302032333A35373A3132002C7359
:100C70002C343A002C732C353A30303634002C7337
:100C80002C363A303044320037002C732C373A304F
:100C90003330390038002C732C383A30363041006C
:100CA00039002C732C393A303030300075002C75F7
:100CB0002C303A30303031002C752C313A30300045
:020CC00023000F
:00000001FF
